:020000040800F2
:10000000D0090020F9020008B10700084B070008DA
:10001000AD07000831060008490E00080000000086
:10002000000000000000000000000000390200088D
:10003000350600080000000095020008410A00088B
:100040001303000813030008130300081303000838
:100050001303000813030008130300081303000828
:100060001303000813030008130300081303000818
:100070001303000813030008130300081303000808
:1000800013030008130300081303000813030008F8
:1000900013030008130300081303000813030008E8
:1000A00013030008130300081303000813030008D8
:1000B00013030008130300081303000813030008C8
:1000C00013030008130300081303000813030008B8
:1000D00013030008D10A00081303000813030008E3
:1000E0001303000813030008130300081303000898
:1000F0001303000813030008130300081303000888
:100100001303000813030008130300081303000877
:100110001303000813030008130300081303000867
:100120001303000813030008130300081303000857
:100130001303000813030008130300081303000847
:100140001303000813030008130300081303000837
:100150001303000813030008130300081303000827
:100160001303000813030008130300081303000817
:100170001303000813030008130300080000000025
:10018000130300081303000800F002F800F044F81D
:100190000AA090E8000C82448344AAF10107DA45E2
:1001A00001D100F039F8AFF2090EBAE80F0013F0F0
:1001B000010F18BFFB1A43F001031847BC0F0000E2
:1001C000DC0F0000103A24BF78C878C1FAD8520773
:1001D00024BF30C830C144BF04680C6070470000C1
:1001E0000023002400250026103A28BF78C1FBD840
:1001F000520728BF30C148BF0B607047642900F028
:100200000781732900F0AF81002070471FB500F00F
:10021000ADFF1FBD10B510BD00F0D8F91146FFF7B6
:10022000F5FF00F023FE00F0F6F903B4FFF7F2FF4C
:1002300003BC00F00BFE00002C4B19680868B0E806
:10024000F04F80F30988BFF36F8F4FF0000080F309
:10025000118870470000000008480068006880F3BB
:1002600008884FF0000080F3148862B661B6BFF3CF
:100270004F8FBFF36F8F00DF00BF00BF08ED00E0BE
:10028000DFF80C00016841F470010160704700BFA5
:1002900088ED00E0EFF30980BFF36F8F134B1A680E
:1002A0001EF0100F08BF20ED108A20E9F04F1060FB
:1002B00009B44FF0500080F31188BFF34F8FBFF3A4
:1002C0006F8F00F0F3FD4FF0000080F3118809BC40
:1002D00019680868B0E8F04F1EF0100F08BFB0ECC6
:1002E000108A80F30988BFF36F8F704710000020D9
:1002F000EFF3058070470000094880470948004730
:10030000FEE7FEE7FEE7FEE7FEE7FEE7FEE7FEE7C5
:10031000FEE7FEE704480549054A064B7047000022
:100320007D0A000889010008D0030020D0090020C0
:10033000D0050020D0050020704700000FB404490C
:1003400010B503AA029800F013F910BC5DF814FB75
:10035000500000202DE9F0410E46044600202062A6
:100360002046E168884730B3252805D0D4E901212B
:100370009047206A401CF2E7E16820460027884742
:10038000050018D0A5F14100192802D820354FF4F6
:1003900000673246294620462760FFF72FFF40B10D
:1003A000012804D0F61D26F007060836D8E7361DCA
:1003B000D6E72846DAE7206ABDE8F08170B50C463A
:1003C0000546012A05D02878800600D5EA69002371
:1003D00002E0012305E05B1C934202D2E05C0028AE
:1003E000F9D1A869E618C01AA861286A18442862D9
:1003F0002846AFF3008004E0D5E9012114F8010B91
:100400009047B442F8D32846AFF3008070BD000097
:100410002DE9F0410646002410687529314616A5DD
:1004200010D0AFF30080002802DA404213A507E0A5
:1004300031688A0701D512A502E0490704D511A544
:10044000012401E0AFF3008000210A2206F1240715
:1004500009E0B0FBF2FCB0FBF2F302FB1C00303011
:1004600078541846491C0028F3D123462A463046C2
:10047000BDE8F04100F00CB8000000002D000000C5
:100480002B00000020000000704770477047704745
:100490002DE9F0470D4699469246044600F124089E
:1004A0000168880604D5E06921F01001216000E0B0
:1004B0000120A84201DD471B00E00027A1697A194D
:1004C00002EB0900081AA0612078C00602D4204679
:1004D000AFF30080002608E0D4E901211AF80600F5
:1004E0009047206A401C761C20624E45F4DB207841
:1004F000C0060AD52046AFF3008006E0D4E901210A
:1005000030209047206A401C2062381EA7F1010766
:10051000F4DC07E0D4E9012118F805009047206ACF
:10052000401C2062281EA5F10105F3DC2046AFF334
:1005300000802078000602D50220BDE8F087012067
:10054000FBE710B5436913B1AFF3008001E0FFF79B
:1005500035FF012010BD127800F124010A7000223D
:100560004A700122EDE711684FF0FF32E9E7000021
:10057000074B70B50D467B4400F011F80446284641
:1005800000F020F810B14FF0FF3070BD204670BD74
:10059000D708000001694A1C02610878704700B55D
:1005A0008FB0CDE901310021059105497944CDE9AC
:1005B000031011466846FFF7CDFE0FB000BD0000E6
:1005C000E5FFFFFF007B00F080007047754600F0FC
:1005D0002BF8AE4605006946534620F007008546D5
:1005E00018B020B5FFF796FEBDE820404FF000069A
:1005F0004FF000074FF000084FF0000B21F007010B
:10060000AC46ACE8C009ACE8C009ACE8C009ACE84D
:10061000C0098D46704710B50446AFF300802046F0
:10062000BDE81040FFF701BE00487047700300208E
:1006300000BFFEE77047000070B50446042000F0DC
:10064000EBF90948B0FBF4F54FF0E0204561006993
:1006500040F002004FF0E02108610846006940F0D8
:100660000100086170BD0000007A030AF0B50A4677
:1006700000210023002400BF3DE0012505FA01F31D
:10068000156805EA03049C4234D105684F0003262F
:10069000BE40B543056015794E00B5400668354348
:1006A00005601579012D02D01579022D16D18568C6
:1006B0004F000326BE40B543856055794E00B540D6
:1006C000866835438560456801268E40B5434560A0
:1006D000456896798E40B6B235434560C5684F008F
:1006E0000326BE40B543C560D5794E00B540C66807
:1006F0003543C560491C1029BFD3F0BDF0B50023B8
:1007000000244D07ED0E02FA05F3CE1000F120058E
:1007100055F826504E07F70E0F26BE40B543CF10B2
:1007200000F1200646F82750CE1000F1200555F8BC
:10073000265045EA0304CE1000F1200545F8264076
:10074000F0BD418370470183704700BFFEE70000A2
:1007500010B5044604F0010028B14FF4806105484B
:10076000FFF7EFFF04E04FF480610248FFF7EBFF73
:1007700010BD0000001402401CB50121202000F033
:1007800097F801208DF804008002009001208DF878
:10079000050000208DF806008DF807006946024824
:1007A000FFF764FF1CBD00000014024000BFFEE71D
:1007B0007047000070B5002100230F22C4781CB3DD
:1007C000174C246804F4E064C4F5E064C4F3072122
:1007D000C1F10404E3B20A4144789C40E1B2847858
:1007E000144021430C07210E0E4C05786155047806
:1007F00004F01F050124AC4005786D11AD0005F132
:10080000E025C5F8004109E0047804F01F05012443
:10081000AC40054D0678761145F8264070BD0000C5
:100820000CED00E000E400E080E100E0024901435B
:10083000024A1160704700000000FA050CED00E06C
:10084000F8B507460C4615461E46F8B28DF800006E
:10085000E0B28DF80100E8B28DF802000EB101207F
:1008600000E000208DF803006846FFF7A3FFF8BD05
:1008700070B50546052D13D2DFE805F00306090C17
:100880000F004FF4E0640EE04FF4C0640BE04FF44F
:10089000A06408E04FF4806405E04FF4407402E087
:1008A0004FF4E06400BF00BF2046FFF7BFFF70BDFC
:1008B00029B1064A12680243044B1A6004E0034A55
:1008C00012688243014B1A607047000030380240C2
:1008D00029B1064A12680243044B1A6004E0034A35
:1008E00012688243014B1A607047000020380240B2
:1008F00029B1064A12680243044B1A6004E0034A15
:1009000012688243014B1A6070470000443802406D
:1009100029B1064A12680243044B1A6004E0034AF4
:1009200012688243014B1A6070470000243802406D
:10093000F0B5002100220024022500260223324FB8
:100940003F6807F00C0121B1042905D0082937D1EF
:1009500005E02E4F076036E02D4F076033E02A4F49
:100960003F1F3F68C7F38056274F3F1F3F6807F080
:100970003F036EB1264FB7FBF3F7DFF88CC0ACF145
:10098000040CDCF800C0CCF3881C07FB0CF40CE072
:100990001E4FB7FBF3F7DFF870C0ACF1040CDCF8C6
:1009A00000C0CCF3881C07FB0CF4174F3F1F3F68B7
:1009B000C7F301477F1C7D00B4FBF5F7076002E039
:1009C000124F076000BF00BF0F4F3F6807F0F001F4
:1009D0000909104F7A5C0768D74047600A4F3F68A3
:1009E00007F4E051890A0B4F7A5C4768D74087606B
:1009F000054F3F6807F46041490B064F7A5C476832
:100A0000D740C760F0BD0000083802400024F40061
:100A100000127A0000000020042808D14FF0E021E5
:100A2000096941F004014FF0E022116107E04FF045
:100A3000E021096921F004014FF0E02211617047C3
:100A400010B500F08FFA012815D000BF502080F3B8
:100A50001188BFF34F8FBFF36F8F00BF00F092FA82
:100A600018B14FF080500449086000BF002080F3A7
:100A7000118800BF00BF10BD04ED00E0034800680E
:100A800040F47000014908607047000088ED00E004
:100A900010B50220FFF7ECFE4FF4E13000F080F9D2
:100AA000FFF76AFE4FF47A70FFF7C6FD01A0FFF76B
:100AB00045FC10BD53797374656D20696E69746966
:100AC000616C697A6520636F6D706C657465210077
:100AD00070B540F225510D4800F0A2F805469DB1D1
:100AE0000A4800F057F9C4B2094801680068401C80
:100AF000074A1060074844540A2C05D100211268A7
:100B0000815400200249086070BD000000100140BF
:100B1000540000203C03002021B1828942F400529D
:100B2000828104E082894DF6FF731A40828170470A
:100B300010B504463248844208D101211020FFF745
:100B4000E7FE00211020FFF7E3FE57E02D48844226
:100B500009D101214804FFF7BBFE00214FF400300A
:100B6000FFF7B6FE4AE02848844209D101218804F3
:100B7000FFF7AEFE00214FF48020FFF7A9FE3DE015
:100B80002248844209D10121C804FFF7A1FE0021B7
:100B90004FF40020FFF79CFE30E01D48844209D14D
:100BA00001210805FFF794FE00214FF48010FFF7A4
:100BB0008FFE23E01748844208D101212020FFF74F
:100BC000A7FE00212020FFF7A3FE17E01248844271
:100BD00009D101218807FFF77BFE00214FF08040FB
:100BE000FFF776FE0AE00D48844207D10121400557
:100BF000FFF76EFE00216005FFF76AFE10BD0000E2
:100C0000001001400044004000480040004C0040FB
:100C1000005000400014014000780040007C00407B
:100C200070B50246002400230025002040F66A1615
:100C3000B14200D100BFC1F3421501F01F030126EC
:100C400006FA03F3012D02D19689334006E0022D06
:100C500002D1168A334001E0968A33400C120126F5
:100C600006FA04F41688344013B10CB1012000E0F8
:100C7000002070BDF0B503460024002600250020AA
:100C800040F66A17B94200D100BF1846C1F34214BA
:100C900001F01F06012707FA06F5012C01D10C30DF
:100CA00004E0022C01D1103000E014301AB10768C2
:100CB0002F43076002E00768AF430760F0BD000004
:100CC0002DE9FF4705460E460024A14600BFA04679
:100CD000B08900B100BF2C8A24F44054F08804434A
:100CE0002C82AC8941F20C608443B088318908437E
:100CF000718908430443AC81AC8A24F44074B08900
:100D00000443AC826846FFF713FE2048854202D0B8
:100D10001F48854202D1DDF80C9001E0DDF8089013
:100D2000A88900F4004040B109EBC90000EB0910AC
:100D300031684900B0FBF1F707E009EBC90000EBAF
:100D4000091031688900B0FBF1F76420B7FBF0F0BF
:100D500004012009642101FB1078A88900F40040F7
:100D600040B1322000EBC800B0FBF1F000F007000A
:100D7000044308E0322000EB08106421B0FBF1F0DE
:100D800000F00F0004432C81BDE8FF8700100140F4
:100D90000014014001468888C0F308007047000035
:100DA00010B586B0044601210846FFF781FD0121F8
:100DB0001020FFF79DFD2248FFF7BAFE0722092108
:100DC0002048FFF79BFC07220A211E48FFF796FCEC
:100DD0004FF4C060009002208DF8040000208DF8D0
:100DE000060001208DF8070002208DF805006946F5
:100DF0001448FFF73BFC02940020ADF80C000C20D7
:100E0000ADF812000020ADF80E00ADF81000ADF8FE
:100E1000140002A90A48FFF753FF012240F22551AE
:100E20000748FFF727FF01210548FFF775FE01235B
:100E3000032211462520FFF703FD06B010BD000078
:100E4000001001400000024000BFFEE700BF7047F5
:100E500000BF054A128802F04002002AF9D0C2B24F
:100E6000014B9A807047000000100140FFF710FE10
:100E70000120FFF76DFC00BFFEE700000948006895
:100E8000006808B9012000E0002020B14FF0FF30D9
:100E90000549086005E003480068C0680068024929
:100EA00008607047140000204000002010B51B4867
:100EB000006818B101201A4908602DE00020184987
:100EC000086018480068B0FA80F0C0F11F0404EB15
:100ED0008400154951F8200008B1012000E00020ED
:100EE00028B940F6024211A119A0FFF727FA04EB36
:100EF00084010D4A02EB810041684968416000F1BC
:100F0000080142688A4202D14168496841604168EB
:100F1000C968134A116000BF10BD00004C000020DA
:100F20003400002028000020580000202E2E5C53A2
:100F3000797374656D5C4672656552544F535C43BA
:100F40006F72655C7372635C7461736B732E6300A4
:100F50004572726F723A25732C25640D0A000000E9
:100F6000100000200549096809B9012005E004497D
:100F7000096809B9022000E0002070472C00002019
:100F80004C0000202DE9F0414FF000085F48006858
:100F900000287DD15E480068451C5D480560002D35
:100FA0001DD15C480068006808B9012000E00020FD
:100FB00028B940F6C72258A160A0FFF7BFF95548ED
:100FC00007686248006853490860604807606048E5
:100FD0000068401C5E490860FFF750FF00BF5D4895
:100FE0000068854277D300BF4A480068006808B9A6
:100FF000012000E0002020B14FF0FF30554908608B
:1010000068E044480068C068C4686668B54202D2B7
:10101000504806605EE06069D4E902128A60D4E953
:1010200002214A60211D42688A4201D1E168416083
:10103000002262610168491E0160A06A98B1A06A3D
:10104000D4E907128A60D4E907214A6004F1180143
:1010500042688A4201D1216A41600022A26201688D
:10106000491E016000BF94F82C10012088403A49C5
:101070000968084338490860E16A01EB8101374A91
:1010800002EB81014868A0608268E260211D00E0F7
:1010900033E0826851608160E16A01EB81012F4A8F
:1010A00002EB81026261E16A01EB81012B4A52F895
:1010B0002110491CE26A02EB8202284B43F82210FD
:1010C0002749E06A0968C96A88428DD34FF0010850
:1010D0008AE700E000BF22480068C06A00EB800099
:1010E0001E4951F82000012801D94FF001081D4880
:1010F000006808B14FF0010804E01B480068401C7C
:10110000194908604046BDE8F08100004C0000200D
:1011100024000020140000202E2E5C537973746587
:101120006D5C4672656552544F535C436F72655CEB
:101130007372635C7461736B732E63004572726FBC
:10114000723A25732C25640D0A0000001800002057
:101150003800002040000020280000205800002017
:101160001000002034000020300000204FF04070BC
:10117000E1EE100A704700009811000800000020FE
:1011800058000000C4010008F011000858000020B9
:1011900078090000E00100080000000001020304DB
:1011A0000102030406070809000000000000000017
:1011B000000000000000000000000000000000002F
:1011C000000000000000000000000000000000001F
:1011D000000000000000000000000000000000000F
:1011E0001F000000000000000000000000000000E0
:040000050800018965
:00000001FF
